{
  "abi": [
    {
      "inputs": [
        {
          "internalType": "uint256",
          "name": "_priceWeek",
          "type": "uint256"
        },
        {
          "internalType": "uint256",
          "name": "_priceMonth",
          "type": "uint256"
        },
        {
          "internalType": "uint256",
          "name": "_priceYear",
          "type": "uint256"
        }
      ],
      "stateMutability": "nonpayable",
      "type": "constructor"
    },
    {
      "anonymous": false,
      "inputs": [
        {
          "indexed": false,
          "internalType": "uint256",
          "name": "weekPrice",
          "type": "uint256"
        },
        {
          "indexed": false,
          "internalType": "uint256",
          "name": "monthPrice",
          "type": "uint256"
        },
        {
          "indexed": false,
          "internalType": "uint256",
          "name": "yearPrice",
          "type": "uint256"
        }
      ],
      "name": "PriceUpdated",
      "type": "event"
    },
    {
      "anonymous": false,
      "inputs": [
        {
          "indexed": true,
          "internalType": "address",
          "name": "user",
          "type": "address"
        },
        {
          "indexed": false,
          "internalType": "uint256",
          "name": "duration",
          "type": "uint256"
        },
        {
          "indexed": false,
          "internalType": "uint256",
          "name": "expiry",
          "type": "uint256"
        }
      ],
      "name": "Subscribed",
      "type": "event"
    },
    {
      "anonymous": false,
      "inputs": [
        {
          "indexed": true,
          "internalType": "address",
          "name": "owner",
          "type": "address"
        },
        {
          "indexed": false,
          "internalType": "uint256",
          "name": "amount",
          "type": "uint256"
        }
      ],
      "name": "Withdrawn",
      "type": "event"
    },
    {
      "inputs": [
        {
          "internalType": "address",
          "name": "_user",
          "type": "address"
        }
      ],
      "name": "isSubscribed",
      "outputs": [
        {
          "internalType": "bool",
          "name": "",
          "type": "bool"
        }
      ],
      "stateMutability": "view",
      "type": "function"
    },
    {
      "inputs": [],
      "name": "owner",
      "outputs": [
        {
          "internalType": "address",
          "name": "",
          "type": "address"
        }
      ],
      "stateMutability": "view",
      "type": "function"
    },
    {
      "inputs": [],
      "name": "priceMonth",
      "outputs": [
        {
          "internalType": "uint256",
          "name": "",
          "type": "uint256"
        }
      ],
      "stateMutability": "view",
      "type": "function"
    },
    {
      "inputs": [],
      "name": "priceWeek",
      "outputs": [
        {
          "internalType": "uint256",
          "name": "",
          "type": "uint256"
        }
      ],
      "stateMutability": "view",
      "type": "function"
    },
    {
      "inputs": [],
      "name": "priceYear",
      "outputs": [
        {
          "internalType": "uint256",
          "name": "",
          "type": "uint256"
        }
      ],
      "stateMutability": "view",
      "type": "function"
    },
    {
      "inputs": [
        {
          "internalType": "uint8",
          "name": "_option",
          "type": "uint8"
        }
      ],
      "name": "subscribe",
      "outputs": [],
      "stateMutability": "payable",
      "type": "function"
    },
    {
      "inputs": [
        {
          "internalType": "address",
          "name": "",
          "type": "address"
        }
      ],
      "name": "subscriptions",
      "outputs": [
        {
          "internalType": "uint256",
          "name": "",
          "type": "uint256"
        }
      ],
      "stateMutability": "view",
      "type": "function"
    },
    {
      "inputs": [
        {
          "internalType": "uint256",
          "name": "_priceWeek",
          "type": "uint256"
        },
        {
          "internalType": "uint256",
          "name": "_priceMonth",
          "type": "uint256"
        },
        {
          "internalType": "uint256",
          "name": "_priceYear",
          "type": "uint256"
        }
      ],
      "name": "updatePrices",
      "outputs": [],
      "stateMutability": "nonpayable",
      "type": "function"
    },
    {
      "inputs": [],
      "name": "withdraw",
      "outputs": [],
      "stateMutability": "nonpayable",
      "type": "function"
    }
  ],
  "devdoc": {
    "kind": "dev",
    "methods": {},
    "version": 1
  },
  "evm": {
    "assembly": "    /* \"Subscription.sol\":58:2616  contract Subscription {... */\n  mstore(0x40, 0x80)\n    /* \"Subscription.sol\":861:1067  constructor(uint256 _priceWeek, uint256 _priceMonth, uint256 _priceYear) {... */\n  callvalue\n  dup1\n  iszero\n  tag_1\n  jumpi\n  0x00\n  dup1\n  revert\ntag_1:\n  pop\n  mload(0x40)\n  sub(codesize, bytecodeSize)\n  dup1\n  bytecodeSize\n  dup4\n  codecopy\n  dup2\n  add\n  0x40\n  dup2\n  swap1\n  mstore\n  tag_2\n  swap2\n  tag_3\n  jump\t// in\ntag_2:\n    /* \"Subscription.sol\":944:949  owner */\n  0x00\n    /* \"Subscription.sol\":944:962  owner = msg.sender */\n  dup1\n  sload\n  not(sub(shl(0xa0, 0x01), 0x01))\n  and\n    /* \"Subscription.sol\":952:962  msg.sender */\n  caller\n    /* \"Subscription.sol\":944:962  owner = msg.sender */\n  or\n  swap1\n  sstore\n  0x01\n    /* \"Subscription.sol\":972:994  priceWeek = _priceWeek */\n  swap3\n  swap1\n  swap3\n  sstore\n    /* \"Subscription.sol\":1004:1014  priceMonth */\n  0x02\n    /* \"Subscription.sol\":1004:1028  priceMonth = _priceMonth */\n  sstore\n    /* \"Subscription.sol\":1038:1047  priceYear */\n  0x03\n    /* \"Subscription.sol\":1038:1060  priceYear = _priceYear */\n  sstore\n    /* \"Subscription.sol\":58:2616  contract Subscription {... */\n  jump(tag_7)\n    /* \"#utility.yul\":14:320   */\ntag_3:\n    /* \"#utility.yul\":102:108   */\n  0x00\n    /* \"#utility.yul\":110:116   */\n  dup1\n    /* \"#utility.yul\":118:124   */\n  0x00\n    /* \"#utility.yul\":171:173   */\n  0x60\n    /* \"#utility.yul\":159:168   */\n  dup5\n    /* \"#utility.yul\":150:157   */\n  dup7\n    /* \"#utility.yul\":146:169   */\n  sub\n    /* \"#utility.yul\":142:174   */\n  slt\n    /* \"#utility.yul\":139:191   */\n  iszero\n  tag_9\n  jumpi\n    /* \"#utility.yul\":187:188   */\n  0x00\n    /* \"#utility.yul\":184:185   */\n  dup1\n    /* \"#utility.yul\":177:189   */\n  revert\n    /* \"#utility.yul\":139:191   */\ntag_9:\n    /* \"#utility.yul\":216:225   */\n  dup4\n    /* \"#utility.yul\":210:226   */\n  mload\n    /* \"#utility.yul\":200:226   */\n  swap3\n  pop\n    /* \"#utility.yul\":266:268   */\n  0x20\n    /* \"#utility.yul\":255:264   */\n  dup5\n    /* \"#utility.yul\":251:269   */\n  add\n    /* \"#utility.yul\":245:270   */\n  mload\n    /* \"#utility.yul\":235:270   */\n  swap2\n  pop\n    /* \"#utility.yul\":310:312   */\n  0x40\n    /* \"#utility.yul\":299:308   */\n  dup5\n    /* \"#utility.yul\":295:313   */\n  add\n    /* \"#utility.yul\":289:314   */\n  mload\n    /* \"#utility.yul\":279:314   */\n  swap1\n  pop\n    /* \"#utility.yul\":14:320   */\n  swap3\n  pop\n  swap3\n  pop\n  swap3\n  jump\t// out\ntag_7:\n    /* \"Subscription.sol\":58:2616  contract Subscription {... */\n  dataSize(sub_0)\n  dup1\n  dataOffset(sub_0)\n  0x00\n  codecopy\n  0x00\n  return\nstop\n\nsub_0: assembly {\n        /* \"Subscription.sol\":58:2616  contract Subscription {... */\n      mstore(0x40, 0x80)\n      jumpi(tag_1, lt(calldatasize, 0x04))\n      shr(0xe0, calldataload(0x00))\n      dup1\n      0x49c7e639\n      gt\n      tag_11\n      jumpi\n      dup1\n      0xb92ae87c\n      gt\n      tag_12\n      jumpi\n      dup1\n      0xb92ae87c\n      eq\n      tag_8\n      jumpi\n      dup1\n      0xf046395a\n      eq\n      tag_9\n      jumpi\n      dup1\n      0xfc54c0cd\n      eq\n      tag_10\n      jumpi\n      0x00\n      dup1\n      revert\n    tag_12:\n      dup1\n      0x49c7e639\n      eq\n      tag_6\n      jumpi\n      dup1\n      0x8da5cb5b\n      eq\n      tag_7\n      jumpi\n      0x00\n      dup1\n      revert\n    tag_11:\n      dup1\n      0x2390a743\n      eq\n      tag_2\n      jumpi\n      dup1\n      0x315b7f6a\n      eq\n      tag_3\n      jumpi\n      dup1\n      0x3ccfd60b\n      eq\n      tag_4\n      jumpi\n      dup1\n      0x3ed620a4\n      eq\n      tag_5\n      jumpi\n    tag_1:\n      0x00\n      dup1\n      revert\n        /* \"Subscription.sol\":394:418  uint256 public priceYear */\n    tag_2:\n      callvalue\n      dup1\n      iszero\n      tag_13\n      jumpi\n      0x00\n      dup1\n      revert\n    tag_13:\n      pop\n      tag_14\n      sload(0x03)\n      dup2\n      jump\n    tag_14:\n      mload(0x40)\n        /* \"#utility.yul\":160:185   */\n      swap1\n      dup2\n      mstore\n        /* \"#utility.yul\":148:150   */\n      0x20\n        /* \"#utility.yul\":133:151   */\n      add\n        /* \"Subscription.sol\":394:418  uint256 public priceYear */\n    tag_16:\n      mload(0x40)\n      dup1\n      swap2\n      sub\n      swap1\n      return\n        /* \"Subscription.sol\":333:357  uint256 public priceWeek */\n    tag_3:\n      callvalue\n      dup1\n      iszero\n      tag_18\n      jumpi\n      0x00\n      dup1\n      revert\n    tag_18:\n      pop\n      tag_14\n      sload(0x01)\n      dup2\n      jump\n        /* \"Subscription.sol\":2395:2614  function withdraw() external onlyOwner {... */\n    tag_4:\n      callvalue\n      dup1\n      iszero\n      tag_22\n      jumpi\n      0x00\n      dup1\n      revert\n    tag_22:\n      pop\n      tag_23\n      tag_24\n      jump\t// in\n    tag_23:\n      stop\n        /* \"Subscription.sol\":2118:2389  function updatePrices(uint256 _priceWeek, uint256 _priceMonth, uint256 _priceYear) external onlyOwner {... */\n    tag_5:\n      callvalue\n      dup1\n      iszero\n      tag_25\n      jumpi\n      0x00\n      dup1\n      revert\n    tag_25:\n      pop\n      tag_23\n      tag_27\n      calldatasize\n      0x04\n      tag_28\n      jump\t// in\n    tag_27:\n      tag_29\n      jump\t// in\n        /* \"Subscription.sol\":1073:1978  function subscribe(uint8 _option) external payable {... */\n    tag_6:\n      tag_23\n      tag_31\n      calldatasize\n      0x04\n      tag_32\n      jump\t// in\n    tag_31:\n      tag_33\n      jump\t// in\n        /* \"Subscription.sol\":86:106  address public owner */\n    tag_7:\n      callvalue\n      dup1\n      iszero\n      tag_34\n      jumpi\n      0x00\n      dup1\n      revert\n    tag_34:\n      pop\n      sload(0x00)\n      tag_35\n      swap1\n      sub(shl(0xa0, 0x01), 0x01)\n      and\n      dup2\n      jump\n    tag_35:\n      mload(0x40)\n      sub(shl(0xa0, 0x01), 0x01)\n        /* \"#utility.yul\":955:1010   */\n      swap1\n      swap2\n      and\n        /* \"#utility.yul\":937:1011   */\n      dup2\n      mstore\n        /* \"#utility.yul\":925:927   */\n      0x20\n        /* \"#utility.yul\":910:928   */\n      add\n        /* \"Subscription.sol\":86:106  address public owner */\n      tag_16\n        /* \"#utility.yul\":791:1017   */\n      jump\n        /* \"Subscription.sol\":1984:2112  function isSubscribed(address _user) external view returns (bool) {... */\n    tag_8:\n      callvalue\n      dup1\n      iszero\n      tag_39\n      jumpi\n      0x00\n      dup1\n      revert\n    tag_39:\n      pop\n      tag_40\n      tag_41\n      calldatasize\n      0x04\n      tag_42\n      jump\t// in\n    tag_41:\n      sub(shl(0xa0, 0x01), 0x01)\n        /* \"Subscription.sol\":2067:2087  subscriptions[_user] */\n      and\n        /* \"Subscription.sol\":2044:2048  bool */\n      0x00\n        /* \"Subscription.sol\":2067:2087  subscriptions[_user] */\n      swap1\n      dup2\n      mstore\n        /* \"Subscription.sol\":2067:2080  subscriptions */\n      0x04\n        /* \"Subscription.sol\":2067:2087  subscriptions[_user] */\n      0x20\n      mstore\n      0x40\n      swap1\n      keccak256\n      sload\n        /* \"Subscription.sol\":2090:2105  block.timestamp */\n      timestamp\n      lt\n        /* \"Subscription.sol\":2067:2105  subscriptions[_user] > block.timestamp */\n      swap1\n        /* \"Subscription.sol\":1984:2112  function isSubscribed(address _user) external view returns (bool) {... */\n      jump\n    tag_40:\n      mload(0x40)\n        /* \"#utility.yul\":1501:1515   */\n      swap1\n      iszero\n        /* \"#utility.yul\":1494:1516   */\n      iszero\n        /* \"#utility.yul\":1476:1517   */\n      dup2\n      mstore\n        /* \"#utility.yul\":1464:1466   */\n      0x20\n        /* \"#utility.yul\":1449:1467   */\n      add\n        /* \"Subscription.sol\":1984:2112  function isSubscribed(address _user) external view returns (bool) {... */\n      tag_16\n        /* \"#utility.yul\":1336:1523   */\n      jump\n        /* \"Subscription.sol\":489:537  mapping(address => uint256) public subscriptions */\n    tag_9:\n      callvalue\n      dup1\n      iszero\n      tag_46\n      jumpi\n      0x00\n      dup1\n      revert\n    tag_46:\n      pop\n      tag_14\n      tag_48\n      calldatasize\n      0x04\n      tag_42\n      jump\t// in\n    tag_48:\n      mstore(0x20, 0x04)\n      0x00\n      swap1\n      dup2\n      mstore\n      0x40\n      swap1\n      keccak256\n      sload\n      dup2\n      jump\n        /* \"Subscription.sol\":363:388  uint256 public priceMonth */\n    tag_10:\n      callvalue\n      dup1\n      iszero\n      tag_51\n      jumpi\n      0x00\n      dup1\n      revert\n    tag_51:\n      pop\n      tag_14\n      sload(0x02)\n      dup2\n      jump\n        /* \"Subscription.sol\":2395:2614  function withdraw() external onlyOwner {... */\n    tag_24:\n        /* \"Subscription.sol\":818:823  owner */\n      and(sub(shl(0xa0, 0x01), 0x01), sload(0x00))\n        /* \"Subscription.sol\":804:814  msg.sender */\n      caller\n        /* \"Subscription.sol\":804:823  msg.sender == owner */\n      eq\n        /* \"Subscription.sol\":796:837  require(msg.sender == owner, \"Not owner\") */\n      tag_56\n      jumpi\n      mload(0x40)\n      shl(0xe5, 0x461bcd)\n      dup2\n      mstore\n        /* \"#utility.yul\":1730:1732   */\n      0x20\n        /* \"Subscription.sol\":796:837  require(msg.sender == owner, \"Not owner\") */\n      0x04\n      dup3\n      add\n        /* \"#utility.yul\":1712:1733   */\n      mstore\n        /* \"#utility.yul\":1769:1770   */\n      0x09\n        /* \"#utility.yul\":1749:1767   */\n      0x24\n      dup3\n      add\n        /* \"#utility.yul\":1742:1771   */\n      mstore\n      shl(0xb9, 0x2737ba1037bbb732b9)\n        /* \"#utility.yul\":1787:1805   */\n      0x44\n      dup3\n      add\n        /* \"#utility.yul\":1780:1819   */\n      mstore\n        /* \"#utility.yul\":1836:1854   */\n      0x64\n      add\n        /* \"Subscription.sol\":796:837  require(msg.sender == owner, \"Not owner\") */\n    tag_57:\n      mload(0x40)\n      dup1\n      swap2\n      sub\n      swap1\n      revert\n    tag_56:\n        /* \"Subscription.sol\":2462:2483  address(this).balance */\n      selfbalance\n        /* \"Subscription.sol\":2501:2512  balance > 0 */\n      dup1\n        /* \"Subscription.sol\":2493:2525  require(balance > 0, \"No funds\") */\n      tag_60\n      jumpi\n      mload(0x40)\n      shl(0xe5, 0x461bcd)\n      dup2\n      mstore\n        /* \"#utility.yul\":2067:2069   */\n      0x20\n        /* \"Subscription.sol\":2493:2525  require(balance > 0, \"No funds\") */\n      0x04\n      dup3\n      add\n        /* \"#utility.yul\":2049:2070   */\n      mstore\n        /* \"#utility.yul\":2106:2107   */\n      0x08\n        /* \"#utility.yul\":2086:2104   */\n      0x24\n      dup3\n      add\n        /* \"#utility.yul\":2079:2108   */\n      mstore\n        /* \"#utility.yul\":2144:2154   */\n      0x4e6f2066756e6473000000000000000000000000000000000000000000000000\n        /* \"#utility.yul\":2124:2142   */\n      0x44\n      dup3\n      add\n        /* \"#utility.yul\":2117:2155   */\n      mstore\n        /* \"#utility.yul\":2172:2190   */\n      0x64\n      add\n        /* \"Subscription.sol\":2493:2525  require(balance > 0, \"No funds\") */\n      tag_57\n        /* \"#utility.yul\":1865:2196   */\n      jump\n        /* \"Subscription.sol\":2493:2525  require(balance > 0, \"No funds\") */\n    tag_60:\n        /* \"Subscription.sol\":2543:2548  owner */\n      0x00\n      dup1\n      sload\n        /* \"Subscription.sol\":2535:2567  payable(owner).transfer(balance) */\n      mload(0x40)\n      sub(shl(0xa0, 0x01), 0x01)\n        /* \"Subscription.sol\":2543:2548  owner */\n      swap1\n      swap2\n      and\n      swap2\n        /* \"Subscription.sol\":2535:2567  payable(owner).transfer(balance) */\n      dup4\n      iszero\n      0x08fc\n      mul\n      swap2\n        /* \"Subscription.sol\":2559:2566  balance */\n      dup5\n      swap2\n        /* \"Subscription.sol\":2535:2567  payable(owner).transfer(balance) */\n      dup2\n        /* \"Subscription.sol\":2543:2548  owner */\n      dup2\n        /* \"Subscription.sol\":2535:2567  payable(owner).transfer(balance) */\n      dup2\n        /* \"Subscription.sol\":2559:2566  balance */\n      dup6\n        /* \"Subscription.sol\":2543:2548  owner */\n      dup9\n        /* \"Subscription.sol\":2535:2567  payable(owner).transfer(balance) */\n      dup9\n      call\n      swap4\n      pop\n      pop\n      pop\n      pop\n      iszero\n      dup1\n      iszero\n      tag_64\n      jumpi\n      returndatasize\n      0x00\n      dup1\n      returndatacopy\n      revert(0x00, returndatasize)\n    tag_64:\n      pop\n        /* \"Subscription.sol\":2592:2597  owner */\n      sload(0x00)\n        /* \"Subscription.sol\":2582:2607  Withdrawn(owner, balance) */\n      mload(0x40)\n        /* \"#utility.yul\":160:185   */\n      dup3\n      dup2\n      mstore\n      sub(shl(0xa0, 0x01), 0x01)\n        /* \"Subscription.sol\":2592:2597  owner */\n      swap1\n      swap2\n      and\n      swap1\n        /* \"Subscription.sol\":2582:2607  Withdrawn(owner, balance) */\n      0x7084f5476618d8e60b11ef0d7d3f06914655adb8793e28ff7f018d4c76d505d5\n      swap1\n        /* \"#utility.yul\":148:150   */\n      0x20\n        /* \"#utility.yul\":133:151   */\n      add\n        /* \"Subscription.sol\":2582:2607  Withdrawn(owner, balance) */\n      mload(0x40)\n      dup1\n      swap2\n      sub\n      swap1\n      log2\n        /* \"Subscription.sol\":2434:2614  {... */\n      pop\n        /* \"Subscription.sol\":2395:2614  function withdraw() external onlyOwner {... */\n      jump\t// out\n        /* \"Subscription.sol\":2118:2389  function updatePrices(uint256 _priceWeek, uint256 _priceMonth, uint256 _priceYear) external onlyOwner {... */\n    tag_29:\n        /* \"Subscription.sol\":818:823  owner */\n      and(sub(shl(0xa0, 0x01), 0x01), sload(0x00))\n        /* \"Subscription.sol\":804:814  msg.sender */\n      caller\n        /* \"Subscription.sol\":804:823  msg.sender == owner */\n      eq\n        /* \"Subscription.sol\":796:837  require(msg.sender == owner, \"Not owner\") */\n      tag_67\n      jumpi\n      mload(0x40)\n      shl(0xe5, 0x461bcd)\n      dup2\n      mstore\n        /* \"#utility.yul\":1730:1732   */\n      0x20\n        /* \"Subscription.sol\":796:837  require(msg.sender == owner, \"Not owner\") */\n      0x04\n      dup3\n      add\n        /* \"#utility.yul\":1712:1733   */\n      mstore\n        /* \"#utility.yul\":1769:1770   */\n      0x09\n        /* \"#utility.yul\":1749:1767   */\n      0x24\n      dup3\n      add\n        /* \"#utility.yul\":1742:1771   */\n      mstore\n      shl(0xb9, 0x2737ba1037bbb732b9)\n        /* \"#utility.yul\":1787:1805   */\n      0x44\n      dup3\n      add\n        /* \"#utility.yul\":1780:1819   */\n      mstore\n        /* \"#utility.yul\":1836:1854   */\n      0x64\n      add\n        /* \"Subscription.sol\":796:837  require(msg.sender == owner, \"Not owner\") */\n      tag_57\n        /* \"#utility.yul\":1528:1860   */\n      jump\n        /* \"Subscription.sol\":796:837  require(msg.sender == owner, \"Not owner\") */\n    tag_67:\n        /* \"Subscription.sol\":2230:2239  priceWeek */\n      0x01\n        /* \"Subscription.sol\":2230:2252  priceWeek = _priceWeek */\n      dup4\n      swap1\n      sstore\n        /* \"Subscription.sol\":2262:2272  priceMonth */\n      0x02\n        /* \"Subscription.sol\":2262:2286  priceMonth = _priceMonth */\n      dup3\n      swap1\n      sstore\n        /* \"Subscription.sol\":2296:2305  priceYear */\n      0x03\n        /* \"Subscription.sol\":2296:2318  priceYear = _priceYear */\n      dup2\n      swap1\n      sstore\n        /* \"Subscription.sol\":2333:2382  PriceUpdated(_priceWeek, _priceMonth, _priceYear) */\n      0x40\n      dup1\n      mload\n        /* \"#utility.yul\":2403:2428   */\n      dup5\n      dup2\n      mstore\n        /* \"#utility.yul\":2459:2461   */\n      0x20\n        /* \"#utility.yul\":2444:2462   */\n      dup2\n      add\n        /* \"#utility.yul\":2437:2471   */\n      dup5\n      swap1\n      mstore\n        /* \"#utility.yul\":2487:2505   */\n      swap1\n      dup2\n      add\n        /* \"#utility.yul\":2480:2514   */\n      dup3\n      swap1\n      mstore\n        /* \"Subscription.sol\":2333:2382  PriceUpdated(_priceWeek, _priceMonth, _priceYear) */\n      0x15819dd2fd9f6418b142e798d08a18d0bf06ea368f4480b7b0d3f75bd966bc48\n      swap1\n        /* \"#utility.yul\":2391:2393   */\n      0x60\n        /* \"#utility.yul\":2376:2394   */\n      add\n        /* \"Subscription.sol\":2333:2382  PriceUpdated(_priceWeek, _priceMonth, _priceYear) */\n      mload(0x40)\n      dup1\n      swap2\n      sub\n      swap1\n      log1\n        /* \"Subscription.sol\":2118:2389  function updatePrices(uint256 _priceWeek, uint256 _priceMonth, uint256 _priceYear) external onlyOwner {... */\n      pop\n      pop\n      pop\n      jump\t// out\n        /* \"Subscription.sol\":1073:1978  function subscribe(uint8 _option) external payable {... */\n    tag_33:\n        /* \"Subscription.sol\":1153:1154  1 */\n      0x01\n        /* \"Subscription.sol\":1142:1149  _option */\n      dup2\n        /* \"Subscription.sol\":1142:1154  _option >= 1 */\n      0xff\n      and\n      lt\n      iszero\n        /* \"Subscription.sol\":1142:1170  _option >= 1 && _option <= 3 */\n      dup1\n      iszero\n      tag_73\n      jumpi\n      pop\n        /* \"Subscription.sol\":1169:1170  3 */\n      0x03\n        /* \"Subscription.sol\":1158:1165  _option */\n      dup2\n        /* \"Subscription.sol\":1158:1170  _option <= 3 */\n      0xff\n      and\n      gt\n      iszero\n        /* \"Subscription.sol\":1142:1170  _option >= 1 && _option <= 3 */\n    tag_73:\n        /* \"Subscription.sol\":1134:1189  require(_option >= 1 && _option <= 3, \"Invalid option\") */\n      tag_74\n      jumpi\n      mload(0x40)\n      shl(0xe5, 0x461bcd)\n      dup2\n      mstore\n        /* \"#utility.yul\":2727:2729   */\n      0x20\n        /* \"Subscription.sol\":1134:1189  require(_option >= 1 && _option <= 3, \"Invalid option\") */\n      0x04\n      dup3\n      add\n        /* \"#utility.yul\":2709:2730   */\n      mstore\n        /* \"#utility.yul\":2766:2768   */\n      0x0e\n        /* \"#utility.yul\":2746:2764   */\n      0x24\n      dup3\n      add\n        /* \"#utility.yul\":2739:2769   */\n      mstore\n        /* \"#utility.yul\":2805:2821   */\n      0x496e76616c6964206f7074696f6e000000000000000000000000000000000000\n        /* \"#utility.yul\":2785:2803   */\n      0x44\n      dup3\n      add\n        /* \"#utility.yul\":2778:2822   */\n      mstore\n        /* \"#utility.yul\":2839:2857   */\n      0x64\n      add\n        /* \"Subscription.sol\":1134:1189  require(_option >= 1 && _option <= 3, \"Invalid option\") */\n      tag_57\n        /* \"#utility.yul\":2525:2863   */\n      jump\n        /* \"Subscription.sol\":1134:1189  require(_option >= 1 && _option <= 3, \"Invalid option\") */\n    tag_74:\n        /* \"Subscription.sol\":1199:1221  uint256 requiredAmount */\n      0x00\n        /* \"Subscription.sol\":1231:1247  uint256 duration */\n      dup1\n        /* \"Subscription.sol\":1262:1269  _option */\n      dup3\n        /* \"Subscription.sol\":1262:1274  _option == 1 */\n      0xff\n      and\n        /* \"Subscription.sol\":1273:1274  1 */\n      0x01\n        /* \"Subscription.sol\":1262:1274  _option == 1 */\n      sub\n        /* \"Subscription.sol\":1258:1560  if (_option == 1) {... */\n      tag_77\n      jumpi\n      pop\n      pop\n        /* \"Subscription.sol\":1307:1316  priceWeek */\n      sload(0x01)\n        /* \"Subscription.sol\":182:188  7 days */\n      0x093a80\n        /* \"Subscription.sol\":1258:1560  if (_option == 1) {... */\n      jump(tag_80)\n    tag_77:\n        /* \"Subscription.sol\":1370:1377  _option */\n      dup3\n        /* \"Subscription.sol\":1370:1382  _option == 2 */\n      0xff\n      and\n        /* \"Subscription.sol\":1381:1382  2 */\n      0x02\n        /* \"Subscription.sol\":1370:1382  _option == 2 */\n      sub\n        /* \"Subscription.sol\":1366:1560  if (_option == 2) {... */\n      tag_79\n      jumpi\n      pop\n      pop\n        /* \"Subscription.sol\":1415:1425  priceMonth */\n      sload(0x02)\n        /* \"Subscription.sol\":223:230  30 days */\n      0x278d00\n        /* \"Subscription.sol\":1366:1560  if (_option == 2) {... */\n      jump(tag_80)\n    tag_79:\n      pop\n      pop\n        /* \"Subscription.sol\":1507:1516  priceYear */\n      sload(0x03)\n        /* \"Subscription.sol\":264:272  365 days */\n      0x01e13380\n        /* \"Subscription.sol\":1366:1560  if (_option == 2) {... */\n    tag_80:\n        /* \"Subscription.sol\":1591:1605  requiredAmount */\n      dup2\n        /* \"Subscription.sol\":1578:1587  msg.value */\n      callvalue\n        /* \"Subscription.sol\":1578:1605  msg.value == requiredAmount */\n      eq\n        /* \"Subscription.sol\":1570:1626  require(msg.value == requiredAmount, \"Incorrect amount\") */\n      tag_81\n      jumpi\n      mload(0x40)\n      shl(0xe5, 0x461bcd)\n      dup2\n      mstore\n        /* \"#utility.yul\":3070:3072   */\n      0x20\n        /* \"Subscription.sol\":1570:1626  require(msg.value == requiredAmount, \"Incorrect amount\") */\n      0x04\n      dup3\n      add\n        /* \"#utility.yul\":3052:3073   */\n      mstore\n        /* \"#utility.yul\":3109:3111   */\n      0x10\n        /* \"#utility.yul\":3089:3107   */\n      0x24\n      dup3\n      add\n        /* \"#utility.yul\":3082:3112   */\n      mstore\n        /* \"#utility.yul\":3148:3166   */\n      0x496e636f727265637420616d6f756e7400000000000000000000000000000000\n        /* \"#utility.yul\":3128:3146   */\n      0x44\n      dup3\n      add\n        /* \"#utility.yul\":3121:3167   */\n      mstore\n        /* \"#utility.yul\":3184:3202   */\n      0x64\n      add\n        /* \"Subscription.sol\":1570:1626  require(msg.value == requiredAmount, \"Incorrect amount\") */\n      tag_57\n        /* \"#utility.yul\":2868:3208   */\n      jump\n        /* \"Subscription.sol\":1570:1626  require(msg.value == requiredAmount, \"Incorrect amount\") */\n    tag_81:\n        /* \"Subscription.sol\":1719:1729  msg.sender */\n      caller\n        /* \"Subscription.sol\":1705:1730  subscriptions[msg.sender] */\n      0x00\n      swap1\n      dup2\n      mstore\n        /* \"Subscription.sol\":1705:1718  subscriptions */\n      0x04\n        /* \"Subscription.sol\":1705:1730  subscriptions[msg.sender] */\n      0x20\n      mstore\n      0x40\n      swap1\n      keccak256\n      sload\n        /* \"Subscription.sol\":1733:1748  block.timestamp */\n      timestamp\n      lt\n        /* \"Subscription.sol\":1701:1897  if (subscriptions[msg.sender] > block.timestamp) {... */\n      iszero\n      tag_84\n      jumpi\n        /* \"Subscription.sol\":1778:1788  msg.sender */\n      caller\n        /* \"Subscription.sol\":1764:1789  subscriptions[msg.sender] */\n      0x00\n      swap1\n      dup2\n      mstore\n        /* \"Subscription.sol\":1764:1777  subscriptions */\n      0x04\n        /* \"Subscription.sol\":1764:1789  subscriptions[msg.sender] */\n      0x20\n      mstore\n      0x40\n      dup2\n      keccak256\n        /* \"Subscription.sol\":1764:1801  subscriptions[msg.sender] += duration */\n      dup1\n      sload\n        /* \"Subscription.sol\":1793:1801  duration */\n      dup4\n      swap3\n        /* \"Subscription.sol\":1764:1789  subscriptions[msg.sender] */\n      swap1\n        /* \"Subscription.sol\":1764:1801  subscriptions[msg.sender] += duration */\n      tag_85\n      swap1\n        /* \"Subscription.sol\":1793:1801  duration */\n      dup5\n      swap1\n        /* \"Subscription.sol\":1764:1801  subscriptions[msg.sender] += duration */\n      tag_86\n      jump\t// in\n    tag_85:\n      swap1\n      swap2\n      sstore\n      pop\n        /* \"Subscription.sol\":1701:1897  if (subscriptions[msg.sender] > block.timestamp) {... */\n      tag_87\n      swap1\n      pop\n      jump\n    tag_84:\n        /* \"Subscription.sol\":1860:1886  block.timestamp + duration */\n      tag_88\n        /* \"Subscription.sol\":1878:1886  duration */\n      dup2\n        /* \"Subscription.sol\":1860:1875  block.timestamp */\n      timestamp\n        /* \"Subscription.sol\":1860:1886  block.timestamp + duration */\n      tag_86\n      jump\t// in\n    tag_88:\n        /* \"Subscription.sol\":1846:1856  msg.sender */\n      caller\n        /* \"Subscription.sol\":1832:1857  subscriptions[msg.sender] */\n      0x00\n      swap1\n      dup2\n      mstore\n        /* \"Subscription.sol\":1832:1845  subscriptions */\n      0x04\n        /* \"Subscription.sol\":1832:1857  subscriptions[msg.sender] */\n      0x20\n      mstore\n      0x40\n      swap1\n      keccak256\n        /* \"Subscription.sol\":1832:1886  subscriptions[msg.sender] = block.timestamp + duration */\n      sstore\n        /* \"Subscription.sol\":1701:1897  if (subscriptions[msg.sender] > block.timestamp) {... */\n    tag_87:\n        /* \"Subscription.sol\":1923:1933  msg.sender */\n      caller\n        /* \"Subscription.sol\":1945:1970  subscriptions[msg.sender] */\n      0x00\n      dup2\n      dup2\n      mstore\n        /* \"Subscription.sol\":1945:1958  subscriptions */\n      0x04\n        /* \"Subscription.sol\":1945:1970  subscriptions[msg.sender] */\n      0x20\n      swap1\n      dup2\n      mstore\n      0x40\n      swap2\n      dup3\n      swap1\n      keccak256\n      sload\n        /* \"Subscription.sol\":1912:1971  Subscribed(msg.sender, duration, subscriptions[msg.sender]) */\n      dup3\n      mload\n        /* \"#utility.yul\":3614:3639   */\n      dup6\n      dup2\n      mstore\n        /* \"#utility.yul\":3655:3673   */\n      swap2\n      dup3\n      add\n        /* \"#utility.yul\":3648:3682   */\n      mstore\n        /* \"Subscription.sol\":1912:1971  Subscribed(msg.sender, duration, subscriptions[msg.sender]) */\n      0xf94991dcbea6e8ac439cbc93bd9c62a4d39f04e0ad656df9a703f13552c2787f\n      swap2\n        /* \"#utility.yul\":3587:3605   */\n      add\n        /* \"Subscription.sol\":1912:1971  Subscribed(msg.sender, duration, subscriptions[msg.sender]) */\n      mload(0x40)\n      dup1\n      swap2\n      sub\n      swap1\n      log2\n        /* \"Subscription.sol\":1124:1978  {... */\n      pop\n      pop\n        /* \"Subscription.sol\":1073:1978  function subscribe(uint8 _option) external payable {... */\n      pop\n      jump\t// out\n        /* \"#utility.yul\":196:512   */\n    tag_28:\n        /* \"#utility.yul\":273:279   */\n      0x00\n        /* \"#utility.yul\":281:287   */\n      dup1\n        /* \"#utility.yul\":289:295   */\n      0x00\n        /* \"#utility.yul\":342:344   */\n      0x60\n        /* \"#utility.yul\":330:339   */\n      dup5\n        /* \"#utility.yul\":321:328   */\n      dup7\n        /* \"#utility.yul\":317:340   */\n      sub\n        /* \"#utility.yul\":313:345   */\n      slt\n        /* \"#utility.yul\":310:362   */\n      iszero\n      tag_95\n      jumpi\n        /* \"#utility.yul\":358:359   */\n      0x00\n        /* \"#utility.yul\":355:356   */\n      dup1\n        /* \"#utility.yul\":348:360   */\n      revert\n        /* \"#utility.yul\":310:362   */\n    tag_95:\n      pop\n      pop\n        /* \"#utility.yul\":381:404   */\n      dup2\n      calldataload\n      swap4\n        /* \"#utility.yul\":451:453   */\n      0x20\n        /* \"#utility.yul\":436:454   */\n      dup4\n      add\n        /* \"#utility.yul\":423:455   */\n      calldataload\n      swap4\n      pop\n        /* \"#utility.yul\":502:504   */\n      0x40\n        /* \"#utility.yul\":487:505   */\n      swap1\n      swap3\n      add\n        /* \"#utility.yul\":474:506   */\n      calldataload\n      swap2\n        /* \"#utility.yul\":196:512   */\n      swap1\n      pop\n      jump\t// out\n        /* \"#utility.yul\":517:786   */\n    tag_32:\n        /* \"#utility.yul\":574:580   */\n      0x00\n        /* \"#utility.yul\":627:629   */\n      0x20\n        /* \"#utility.yul\":615:624   */\n      dup3\n        /* \"#utility.yul\":606:613   */\n      dup5\n        /* \"#utility.yul\":602:625   */\n      sub\n        /* \"#utility.yul\":598:630   */\n      slt\n        /* \"#utility.yul\":595:647   */\n      iszero\n      tag_97\n      jumpi\n        /* \"#utility.yul\":643:644   */\n      0x00\n        /* \"#utility.yul\":640:641   */\n      dup1\n        /* \"#utility.yul\":633:645   */\n      revert\n        /* \"#utility.yul\":595:647   */\n    tag_97:\n        /* \"#utility.yul\":682:691   */\n      dup2\n        /* \"#utility.yul\":669:692   */\n      calldataload\n        /* \"#utility.yul\":732:736   */\n      0xff\n        /* \"#utility.yul\":725:730   */\n      dup2\n        /* \"#utility.yul\":721:737   */\n      and\n        /* \"#utility.yul\":714:719   */\n      dup2\n        /* \"#utility.yul\":711:738   */\n      eq\n        /* \"#utility.yul\":701:756   */\n      tag_98\n      jumpi\n        /* \"#utility.yul\":752:753   */\n      0x00\n        /* \"#utility.yul\":749:750   */\n      dup1\n        /* \"#utility.yul\":742:754   */\n      revert\n        /* \"#utility.yul\":701:756   */\n    tag_98:\n        /* \"#utility.yul\":775:780   */\n      swap4\n        /* \"#utility.yul\":517:786   */\n      swap3\n      pop\n      pop\n      pop\n      jump\t// out\n        /* \"#utility.yul\":1022:1331   */\n    tag_42:\n        /* \"#utility.yul\":1081:1087   */\n      0x00\n        /* \"#utility.yul\":1134:1136   */\n      0x20\n        /* \"#utility.yul\":1122:1131   */\n      dup3\n        /* \"#utility.yul\":1113:1120   */\n      dup5\n        /* \"#utility.yul\":1109:1132   */\n      sub\n        /* \"#utility.yul\":1105:1137   */\n      slt\n        /* \"#utility.yul\":1102:1154   */\n      iszero\n      tag_101\n      jumpi\n        /* \"#utility.yul\":1150:1151   */\n      0x00\n        /* \"#utility.yul\":1147:1148   */\n      dup1\n        /* \"#utility.yul\":1140:1152   */\n      revert\n        /* \"#utility.yul\":1102:1154   */\n    tag_101:\n        /* \"#utility.yul\":1189:1198   */\n      dup2\n        /* \"#utility.yul\":1176:1199   */\n      calldataload\n      sub(shl(0xa0, 0x01), 0x01)\n        /* \"#utility.yul\":1232:1237   */\n      dup2\n        /* \"#utility.yul\":1228:1282   */\n      and\n        /* \"#utility.yul\":1221:1226   */\n      dup2\n        /* \"#utility.yul\":1218:1283   */\n      eq\n        /* \"#utility.yul\":1208:1301   */\n      tag_98\n      jumpi\n        /* \"#utility.yul\":1297:1298   */\n      0x00\n        /* \"#utility.yul\":1294:1295   */\n      dup1\n        /* \"#utility.yul\":1287:1299   */\n      revert\n        /* \"#utility.yul\":3213:3435   */\n    tag_86:\n        /* \"#utility.yul\":3278:3287   */\n      dup1\n      dup3\n      add\n        /* \"#utility.yul\":3299:3309   */\n      dup1\n      dup3\n      gt\n        /* \"#utility.yul\":3296:3429   */\n      iszero\n      tag_110\n      jumpi\n        /* \"#utility.yul\":3351:3361   */\n      0x4e487b71\n        /* \"#utility.yul\":3346:3349   */\n      0xe0\n        /* \"#utility.yul\":3342:3362   */\n      shl\n        /* \"#utility.yul\":3339:3340   */\n      0x00\n        /* \"#utility.yul\":3332:3363   */\n      mstore\n        /* \"#utility.yul\":3386:3390   */\n      0x11\n        /* \"#utility.yul\":3383:3384   */\n      0x04\n        /* \"#utility.yul\":3376:3391   */\n      mstore\n        /* \"#utility.yul\":3414:3418   */\n      0x24\n        /* \"#utility.yul\":3411:3412   */\n      0x00\n        /* \"#utility.yul\":3404:3419   */\n      revert\n        /* \"#utility.yul\":3296:3429   */\n    tag_110:\n        /* \"#utility.yul\":3213:3435   */\n      swap3\n      swap2\n      pop\n      pop\n      jump\t// out\n\n    auxdata: 0xa2646970667358221220d7fce0b0c1aac62556846c70b0c5f5a70a93e8dfb0f3f85368328e18896c723c64736f6c63430008190033\n}\n",
    "bytecode": {
      "linkReferences": {},
      "object": "6080604052348015600e575f80fd5b50604051610670380380610670833981016040819052602b91604c565b5f80546001600160a01b031916331790556001929092556002556003556076565b5f805f60608486031215605d575f80fd5b8351925060208401519150604084015190509250925092565b6105ed806100835f395ff3fe608060405260043610610093575f3560e01c806349c7e63911610066578063b92ae87c1161004c578063b92ae87c14610152578063f046395a14610198578063fc54c0cd146101c3575f80fd5b806349c7e639146101095780638da5cb5b1461011c575f80fd5b80632390a74314610097578063315b7f6a146100bf5780633ccfd60b146100d45780633ed620a4146100ea575b5f80fd5b3480156100a2575f80fd5b506100ac60035481565b6040519081526020015b60405180910390f35b3480156100ca575f80fd5b506100ac60015481565b3480156100df575f80fd5b506100e86101d8565b005b3480156100f5575f80fd5b506100e861010436600461051c565b6102eb565b6100e8610117366004610545565b610385565b348015610127575f80fd5b505f5461013a906001600160a01b031681565b6040516001600160a01b0390911681526020016100b6565b34801561015d575f80fd5b5061018861016c36600461056c565b6001600160a01b03165f90815260046020526040902054421090565b60405190151581526020016100b6565b3480156101a3575f80fd5b506100ac6101b236600461056c565b60046020525f908152604090205481565b3480156101ce575f80fd5b506100ac60025481565b5f546001600160a01b031633146102225760405162461bcd60e51b81526020600482015260096024820152682737ba1037bbb732b960b91b60448201526064015b60405180910390fd5b47806102705760405162461bcd60e51b815260206004820152600860248201527f4e6f2066756e64730000000000000000000000000000000000000000000000006044820152606401610219565b5f80546040516001600160a01b039091169183156108fc02918491818181858888f193505050501580156102a6573d5f803e3d5ffd5b505f546040518281526001600160a01b03909116907f7084f5476618d8e60b11ef0d7d3f06914655adb8793e28ff7f018d4c76d505d59060200160405180910390a250565b5f546001600160a01b031633146103305760405162461bcd60e51b81526020600482015260096024820152682737ba1037bbb732b960b91b6044820152606401610219565b60018390556002829055600381905560408051848152602081018490529081018290527f15819dd2fd9f6418b142e798d08a18d0bf06ea368f4480b7b0d3f75bd966bc489060600160405180910390a1505050565b60018160ff161015801561039d575060038160ff1611155b6103e95760405162461bcd60e51b815260206004820152600e60248201527f496e76616c6964206f7074696f6e0000000000000000000000000000000000006044820152606401610219565b5f808260ff1660010361040457505060015462093a80610428565b8260ff1660020361041d57505060025462278d00610428565b50506003546301e133805b8134146104775760405162461bcd60e51b815260206004820152601060248201527f496e636f727265637420616d6f756e74000000000000000000000000000000006044820152606401610219565b335f908152600460205260409020544210156104b657335f90815260046020526040812080548392906104ab908490610592565b909155506104d09050565b6104c08142610592565b335f908152600460205260409020555b335f81815260046020908152604091829020548251858152918201527ff94991dcbea6e8ac439cbc93bd9c62a4d39f04e0ad656df9a703f13552c2787f910160405180910390a2505050565b5f805f6060848603121561052e575f80fd5b505081359360208301359350604090920135919050565b5f60208284031215610555575f80fd5b813560ff81168114610565575f80fd5b9392505050565b5f6020828403121561057c575f80fd5b81356001600160a01b0381168114610565575f80fd5b808201808211156105b157634e487b7160e01b5f52601160045260245ffd5b9291505056fea2646970667358221220d7fce0b0c1aac62556846c70b0c5f5a70a93e8dfb0f3f85368328e18896c723c64736f6c63430008190033",
      "opcodes": "PUSH1 0x80 PUSH1 0x40 MSTORE CALLVALUE DUP1 ISZERO PUSH1 0xE JUMPI PUSH0 DUP1 REVERT JUMPDEST POP PUSH1 0x40 MLOAD PUSH2 0x670 CODESIZE SUB DUP1 PUSH2 0x670 DUP4 CODECOPY DUP2 ADD PUSH1 0x40 DUP2 SWAP1 MSTORE PUSH1 0x2B SWAP2 PUSH1 0x4C JUMP JUMPDEST PUSH0 DUP1 SLOAD PUSH1 0x1 PUSH1 0x1 PUSH1 0xA0 SHL SUB NOT AND CALLER OR SWAP1 SSTORE PUSH1 0x1 SWAP3 SWAP1 SWAP3 SSTORE PUSH1 0x2 SSTORE PUSH1 0x3 SSTORE PUSH1 0x76 JUMP JUMPDEST PUSH0 DUP1 PUSH0 PUSH1 0x60 DUP5 DUP7 SUB SLT ISZERO PUSH1 0x5D JUMPI PUSH0 DUP1 REVERT JUMPDEST DUP4 MLOAD SWAP3 POP PUSH1 0x20 DUP5 ADD MLOAD SWAP2 POP PUSH1 0x40 DUP5 ADD MLOAD SWAP1 POP SWAP3 POP SWAP3 POP SWAP3 JUMP JUMPDEST PUSH2 0x5ED DUP1 PUSH2 0x83 PUSH0 CODECOPY PUSH0 RETURN INVALID PUSH1 0x80 PUSH1 0x40 MSTORE PUSH1 0x4 CALLDATASIZE LT PUSH2 0x93 JUMPI PUSH0 CALLDATALOAD PUSH1 0xE0 SHR DUP1 PUSH4 0x49C7E639 GT PUSH2 0x66 JUMPI DUP1 PUSH4 0xB92AE87C GT PUSH2 0x4C JUMPI DUP1 PUSH4 0xB92AE87C EQ PUSH2 0x152 JUMPI DUP1 PUSH4 0xF046395A EQ PUSH2 0x198 JUMPI DUP1 PUSH4 0xFC54C0CD EQ PUSH2 0x1C3 JUMPI PUSH0 DUP1 REVERT JUMPDEST DUP1 PUSH4 0x49C7E639 EQ PUSH2 0x109 JUMPI DUP1 PUSH4 0x8DA5CB5B EQ PUSH2 0x11C JUMPI PUSH0 DUP1 REVERT JUMPDEST DUP1 PUSH4 0x2390A743 EQ PUSH2 0x97 JUMPI DUP1 PUSH4 0x315B7F6A EQ PUSH2 0xBF JUMPI DUP1 PUSH4 0x3CCFD60B EQ PUSH2 0xD4 JUMPI DUP1 PUSH4 0x3ED620A4 EQ PUSH2 0xEA JUMPI JUMPDEST PUSH0 DUP1 REVERT JUMPDEST CALLVALUE DUP1 ISZERO PUSH2 0xA2 JUMPI PUSH0 DUP1 REVERT JUMPDEST POP PUSH2 0xAC PUSH1 0x3 SLOAD DUP2 JUMP JUMPDEST PUSH1 0x40 MLOAD SWAP1 DUP2 MSTORE PUSH1 0x20 ADD JUMPDEST PUSH1 0x40 MLOAD DUP1 SWAP2 SUB SWAP1 RETURN JUMPDEST CALLVALUE DUP1 ISZERO PUSH2 0xCA JUMPI PUSH0 DUP1 REVERT JUMPDEST POP PUSH2 0xAC PUSH1 0x1 SLOAD DUP2 JUMP JUMPDEST CALLVALUE DUP1 ISZERO PUSH2 0xDF JUMPI PUSH0 DUP1 REVERT JUMPDEST POP PUSH2 0xE8 PUSH2 0x1D8 JUMP JUMPDEST STOP JUMPDEST CALLVALUE DUP1 ISZERO PUSH2 0xF5 JUMPI PUSH0 DUP1 REVERT JUMPDEST POP PUSH2 0xE8 PUSH2 0x104 CALLDATASIZE PUSH1 0x4 PUSH2 0x51C JUMP JUMPDEST PUSH2 0x2EB JUMP JUMPDEST PUSH2 0xE8 PUSH2 0x117 CALLDATASIZE PUSH1 0x4 PUSH2 0x545 JUMP JUMPDEST PUSH2 0x385 JUMP JUMPDEST CALLVALUE DUP1 ISZERO PUSH2 0x127 JUMPI PUSH0 DUP1 REVERT JUMPDEST POP PUSH0 SLOAD PUSH2 0x13A SWAP1 PUSH1 0x1 PUSH1 0x1 PUSH1 0xA0 SHL SUB AND DUP2 JUMP JUMPDEST PUSH1 0x40 MLOAD PUSH1 0x1 PUSH1 0x1 PUSH1 0xA0 SHL SUB SWAP1 SWAP2 AND DUP2 MSTORE PUSH1 0x20 ADD PUSH2 0xB6 JUMP JUMPDEST CALLVALUE DUP1 ISZERO PUSH2 0x15D JUMPI PUSH0 DUP1 REVERT JUMPDEST POP PUSH2 0x188 PUSH2 0x16C CALLDATASIZE PUSH1 0x4 PUSH2 0x56C JUMP JUMPDEST PUSH1 0x1 PUSH1 0x1 PUSH1 0xA0 SHL SUB AND PUSH0 SWAP1 DUP2 MSTORE PUSH1 0x4 PUSH1 0x20 MSTORE PUSH1 0x40 SWAP1 KECCAK256 SLOAD TIMESTAMP LT SWAP1 JUMP JUMPDEST PUSH1 0x40 MLOAD SWAP1 ISZERO ISZERO DUP2 MSTORE PUSH1 0x20 ADD PUSH2 0xB6 JUMP JUMPDEST CALLVALUE DUP1 ISZERO PUSH2 0x1A3 JUMPI PUSH0 DUP1 REVERT JUMPDEST POP PUSH2 0xAC PUSH2 0x1B2 CALLDATASIZE PUSH1 0x4 PUSH2 0x56C JUMP JUMPDEST PUSH1 0x4 PUSH1 0x20 MSTORE PUSH0 SWAP1 DUP2 MSTORE PUSH1 0x40 SWAP1 KECCAK256 SLOAD DUP2 JUMP JUMPDEST CALLVALUE DUP1 ISZERO PUSH2 0x1CE JUMPI PUSH0 DUP1 REVERT JUMPDEST POP PUSH2 0xAC PUSH1 0x2 SLOAD DUP2 JUMP JUMPDEST PUSH0 SLOAD PUSH1 0x1 PUSH1 0x1 PUSH1 0xA0 SHL SUB AND CALLER EQ PUSH2 0x222 JUMPI PUSH1 0x40 MLOAD PUSH3 0x461BCD PUSH1 0xE5 SHL DUP2 MSTORE PUSH1 0x20 PUSH1 0x4 DUP3 ADD MSTORE PUSH1 0x9 PUSH1 0x24 DUP3 ADD MSTORE PUSH9 0x2737BA1037BBB732B9 PUSH1 0xB9 SHL PUSH1 0x44 DUP3 ADD MSTORE PUSH1 0x64 ADD JUMPDEST PUSH1 0x40 MLOAD DUP1 SWAP2 SUB SWAP1 REVERT JUMPDEST SELFBALANCE DUP1 PUSH2 0x270 JUMPI PUSH1 0x40 MLOAD PUSH3 0x461BCD PUSH1 0xE5 SHL DUP2 MSTORE PUSH1 0x20 PUSH1 0x4 DUP3 ADD MSTORE PUSH1 0x8 PUSH1 0x24 DUP3 ADD MSTORE PUSH32 0x4E6F2066756E6473000000000000000000000000000000000000000000000000 PUSH1 0x44 DUP3 ADD MSTORE PUSH1 0x64 ADD PUSH2 0x219 JUMP JUMPDEST PUSH0 DUP1 SLOAD PUSH1 0x40 MLOAD PUSH1 0x1 PUSH1 0x1 PUSH1 0xA0 SHL SUB SWAP1 SWAP2 AND SWAP2 DUP4 ISZERO PUSH2 0x8FC MUL SWAP2 DUP5 SWAP2 DUP2 DUP2 DUP2 DUP6 DUP9 DUP9 CALL SWAP4 POP POP POP POP ISZERO DUP1 ISZERO PUSH2 0x2A6 JUMPI RETURNDATASIZE PUSH0 DUP1 RETURNDATACOPY RETURNDATASIZE PUSH0 REVERT JUMPDEST POP PUSH0 SLOAD PUSH1 0x40 MLOAD DUP3 DUP2 MSTORE PUSH1 0x1 PUSH1 0x1 PUSH1 0xA0 SHL SUB SWAP1 SWAP2 AND SWAP1 PUSH32 0x7084F5476618D8E60B11EF0D7D3F06914655ADB8793E28FF7F018D4C76D505D5 SWAP1 PUSH1 0x20 ADD PUSH1 0x40 MLOAD DUP1 SWAP2 SUB SWAP1 LOG2 POP JUMP JUMPDEST PUSH0 SLOAD PUSH1 0x1 PUSH1 0x1 PUSH1 0xA0 SHL SUB AND CALLER EQ PUSH2 0x330 JUMPI PUSH1 0x40 MLOAD PUSH3 0x461BCD PUSH1 0xE5 SHL DUP2 MSTORE PUSH1 0x20 PUSH1 0x4 DUP3 ADD MSTORE PUSH1 0x9 PUSH1 0x24 DUP3 ADD MSTORE PUSH9 0x2737BA1037BBB732B9 PUSH1 0xB9 SHL PUSH1 0x44 DUP3 ADD MSTORE PUSH1 0x64 ADD PUSH2 0x219 JUMP JUMPDEST PUSH1 0x1 DUP4 SWAP1 SSTORE PUSH1 0x2 DUP3 SWAP1 SSTORE PUSH1 0x3 DUP2 SWAP1 SSTORE PUSH1 0x40 DUP1 MLOAD DUP5 DUP2 MSTORE PUSH1 0x20 DUP2 ADD DUP5 SWAP1 MSTORE SWAP1 DUP2 ADD DUP3 SWAP1 MSTORE PUSH32 0x15819DD2FD9F6418B142E798D08A18D0BF06EA368F4480B7B0D3F75BD966BC48 SWAP1 PUSH1 0x60 ADD PUSH1 0x40 MLOAD DUP1 SWAP2 SUB SWAP1 LOG1 POP POP POP JUMP JUMPDEST PUSH1 0x1 DUP2 PUSH1 0xFF AND LT ISZERO DUP1 ISZERO PUSH2 0x39D JUMPI POP PUSH1 0x3 DUP2 PUSH1 0xFF AND GT ISZERO JUMPDEST PUSH2 0x3E9 JUMPI PUSH1 0x40 MLOAD PUSH3 0x461BCD PUSH1 0xE5 SHL DUP2 MSTORE PUSH1 0x20 PUSH1 0x4 DUP3 ADD MSTORE PUSH1 0xE PUSH1 0x24 DUP3 ADD MSTORE PUSH32 0x496E76616C6964206F7074696F6E000000000000000000000000000000000000 PUSH1 0x44 DUP3 ADD MSTORE PUSH1 0x64 ADD PUSH2 0x219 JUMP JUMPDEST PUSH0 DUP1 DUP3 PUSH1 0xFF AND PUSH1 0x1 SUB PUSH2 0x404 JUMPI POP POP PUSH1 0x1 SLOAD PUSH3 0x93A80 PUSH2 0x428 JUMP JUMPDEST DUP3 PUSH1 0xFF AND PUSH1 0x2 SUB PUSH2 0x41D JUMPI POP POP PUSH1 0x2 SLOAD PUSH3 0x278D00 PUSH2 0x428 JUMP JUMPDEST POP POP PUSH1 0x3 SLOAD PUSH4 0x1E13380 JUMPDEST DUP2 CALLVALUE EQ PUSH2 0x477 JUMPI PUSH1 0x40 MLOAD PUSH3 0x461BCD PUSH1 0xE5 SHL DUP2 MSTORE PUSH1 0x20 PUSH1 0x4 DUP3 ADD MSTORE PUSH1 0x10 PUSH1 0x24 DUP3 ADD MSTORE PUSH32 0x496E636F727265637420616D6F756E7400000000000000000000000000000000 PUSH1 0x44 DUP3 ADD MSTORE PUSH1 0x64 ADD PUSH2 0x219 JUMP JUMPDEST CALLER PUSH0 SWAP1 DUP2 MSTORE PUSH1 0x4 PUSH1 0x20 MSTORE PUSH1 0x40 SWAP1 KECCAK256 SLOAD TIMESTAMP LT ISZERO PUSH2 0x4B6 JUMPI CALLER PUSH0 SWAP1 DUP2 MSTORE PUSH1 0x4 PUSH1 0x20 MSTORE PUSH1 0x40 DUP2 KECCAK256 DUP1 SLOAD DUP4 SWAP3 SWAP1 PUSH2 0x4AB SWAP1 DUP5 SWAP1 PUSH2 0x592 JUMP JUMPDEST SWAP1 SWAP2 SSTORE POP PUSH2 0x4D0 SWAP1 POP JUMP JUMPDEST PUSH2 0x4C0 DUP2 TIMESTAMP PUSH2 0x592 JUMP JUMPDEST CALLER PUSH0 SWAP1 DUP2 MSTORE PUSH1 0x4 PUSH1 0x20 MSTORE PUSH1 0x40 SWAP1 KECCAK256 SSTORE JUMPDEST CALLER PUSH0 DUP2 DUP2 MSTORE PUSH1 0x4 PUSH1 0x20 SWAP1 DUP2 MSTORE PUSH1 0x40 SWAP2 DUP3 SWAP1 KECCAK256 SLOAD DUP3 MLOAD DUP6 DUP2 MSTORE SWAP2 DUP3 ADD MSTORE PUSH32 0xF94991DCBEA6E8AC439CBC93BD9C62A4D39F04E0AD656DF9A703F13552C2787F SWAP2 ADD PUSH1 0x40 MLOAD DUP1 SWAP2 SUB SWAP1 LOG2 POP POP POP JUMP JUMPDEST PUSH0 DUP1 PUSH0 PUSH1 0x60 DUP5 DUP7 SUB SLT ISZERO PUSH2 0x52E JUMPI PUSH0 DUP1 REVERT JUMPDEST POP POP DUP2 CALLDATALOAD SWAP4 PUSH1 0x20 DUP4 ADD CALLDATALOAD SWAP4 POP PUSH1 0x40 SWAP1 SWAP3 ADD CALLDATALOAD SWAP2 SWAP1 POP JUMP JUMPDEST PUSH0 PUSH1 0x20 DUP3 DUP5 SUB SLT ISZERO PUSH2 0x555 JUMPI PUSH0 DUP1 REVERT JUMPDEST DUP2 CALLDATALOAD PUSH1 0xFF DUP2 AND DUP2 EQ PUSH2 0x565 JUMPI PUSH0 DUP1 REVERT JUMPDEST SWAP4 SWAP3 POP POP POP JUMP JUMPDEST PUSH0 PUSH1 0x20 DUP3 DUP5 SUB SLT ISZERO PUSH2 0x57C JUMPI PUSH0 DUP1 REVERT JUMPDEST DUP2 CALLDATALOAD PUSH1 0x1 PUSH1 0x1 PUSH1 0xA0 SHL SUB DUP2 AND DUP2 EQ PUSH2 0x565 JUMPI PUSH0 DUP1 REVERT JUMPDEST DUP1 DUP3 ADD DUP1 DUP3 GT ISZERO PUSH2 0x5B1 JUMPI PUSH4 0x4E487B71 PUSH1 0xE0 SHL PUSH0 MSTORE PUSH1 0x11 PUSH1 0x4 MSTORE PUSH1 0x24 PUSH0 REVERT JUMPDEST SWAP3 SWAP2 POP POP JUMP INVALID LOG2 PUSH5 0x6970667358 0x22 SLT KECCAK256 0xD7 0xFC 0xE0 0xB0 0xC1 0xAA 0xC6 0x25 JUMP DUP5 PUSH13 0x70B0C5F5A70A93E8DFB0F3F853 PUSH9 0x328E18896C723C6473 PUSH16 0x6C634300081900330000000000000000 "
    },
    "gasEstimates": {
      "creation": {
        "codeDepositCost": "303400",
        "executionCost": "infinite",
        "totalCost": "infinite"
      },
      "external": {
        "isSubscribed(address)": "2532",
        "owner()": "2380",
        "priceMonth()": "2349",
        "priceWeek()": "2306",
        "priceYear()": "2284",
        "subscribe(uint8)": "32994",
        "subscriptions(address)": "2514",
        "updatePrices(uint256,uint256,uint256)": "70417",
        "withdraw()": "infinite"
      }
    },
    "methodIdentifiers": {
      "isSubscribed(address)": "b92ae87c",
      "owner()": "8da5cb5b",
      "priceMonth()": "fc54c0cd",
      "priceWeek()": "315b7f6a",
      "priceYear()": "2390a743",
      "subscribe(uint8)": "49c7e639",
      "subscriptions(address)": "f046395a",
      "updatePrices(uint256,uint256,uint256)": "3ed620a4",
      "withdraw()": "3ccfd60b"
    }
  },
  "storageLayout": {
    "storage": [
      {
        "astId": 3,
        "contract": "Subscription.sol:Subscription",
        "label": "owner",
        "offset": 0,
        "slot": "0",
        "type": "t_address"
      },
      {
        "astId": 14,
        "contract": "Subscription.sol:Subscription",
        "label": "priceWeek",
        "offset": 0,
        "slot": "1",
        "type": "t_uint256"
      },
      {
        "astId": 16,
        "contract": "Subscription.sol:Subscription",
        "label": "priceMonth",
        "offset": 0,
        "slot": "2",
        "type": "t_uint256"
      },
      {
        "astId": 18,
        "contract": "Subscription.sol:Subscription",
        "label": "priceYear",
        "offset": 0,
        "slot": "3",
        "type": "t_uint256"
      },
      {
        "astId": 22,
        "contract": "Subscription.sol:Subscription",
        "label": "subscriptions",
        "offset": 0,
        "slot": "4",
        "type": "t_mapping(t_address,t_uint256)"
      }
    ],
    "types": {
      "t_address": {
        "encoding": "inplace",
        "label": "address",
        "numberOfBytes": "20"
      },
      "t_mapping(t_address,t_uint256)": {
        "encoding": "mapping",
        "key": "t_address",
        "label": "mapping(address => uint256)",
        "numberOfBytes": "32",
        "value": "t_uint256"
      },
      "t_uint256": {
        "encoding": "inplace",
        "label": "uint256",
        "numberOfBytes": "32"
      }
    }
  },
  "userdoc": {
    "kind": "user",
    "methods": {},
    "version": 1
  }
}